{
  "_format": "hh-sol-artifact-1",
  "contractName": "TokenShop",
  "sourceName": "contracts/TokenShop.sol",
  "abi": [
    {
      "inputs": [
        {
          "internalType": "address",
          "name": "tokenAddress",
          "type": "address"
        }
      ],
      "stateMutability": "nonpayable",
      "type": "constructor"
    },
    {
      "inputs": [],
      "name": "getChainlinkDataFeedLatestAnswer",
      "outputs": [
        {
          "internalType": "int256",
          "name": "",
          "type": "int256"
        }
      ],
      "stateMutability": "view",
      "type": "function"
    },
    {
      "inputs": [],
      "name": "minter",
      "outputs": [
        {
          "internalType": "contract TokenInterface",
          "name": "",
          "type": "address"
        }
      ],
      "stateMutability": "view",
      "type": "function"
    },
    {
      "inputs": [],
      "name": "owner",
      "outputs": [
        {
          "internalType": "address",
          "name": "",
          "type": "address"
        }
      ],
      "stateMutability": "view",
      "type": "function"
    },
    {
      "inputs": [
        {
          "internalType": "uint256",
          "name": "amountETH",
          "type": "uint256"
        }
      ],
      "name": "tokenAmount",
      "outputs": [
        {
          "internalType": "uint256",
          "name": "",
          "type": "uint256"
        }
      ],
      "stateMutability": "view",
      "type": "function"
    },
    {
      "inputs": [],
      "name": "tokenPrice",
      "outputs": [
        {
          "internalType": "uint256",
          "name": "",
          "type": "uint256"
        }
      ],
      "stateMutability": "view",
      "type": "function"
    },
    {
      "inputs": [],
      "name": "withdraw",
      "outputs": [],
      "stateMutability": "nonpayable",
      "type": "function"
    },
    {
      "stateMutability": "payable",
      "type": "receive"
    }
  ],
  "bytecode": "0x608060405260c860025534801561001557600080fd5b5060405161098938038061098983398181016040528101906100379190610176565b80600160006101000a81548173ffffffffffffffffffffffffffffffffffffffff021916908373ffffffffffffffffffffffffffffffffffffffff16021790555073694aa1769357215de4fac081bf1f309adc3253066000806101000a81548173ffffffffffffffffffffffffffffffffffffffff021916908373ffffffffffffffffffffffffffffffffffffffff16021790555033600360006101000a81548173ffffffffffffffffffffffffffffffffffffffff021916908373ffffffffffffffffffffffffffffffffffffffff160217905550506101a3565b600080fd5b600073ffffffffffffffffffffffffffffffffffffffff82169050919050565b600061014382610118565b9050919050565b61015381610138565b811461015e57600080fd5b50565b6000815190506101708161014a565b92915050565b60006020828403121561018c5761018b610113565b5b600061019a84828501610161565b91505092915050565b6107d7806101b26000396000f3fe6080604052600436106100595760003560e01c806307546172146100fd5780633ccfd60b1461012857806345ab331e1461013f5780637ff9b5961461017c5780638da5cb5b146101a7578063bea4dfb5146101d2576100f8565b366100f8576000610069346101fd565b9050600160009054906101000a900473ffffffffffffffffffffffffffffffffffffffff1673ffffffffffffffffffffffffffffffffffffffff166340c10f1933836040518363ffffffff1660e01b81526004016100c8929190610467565b600060405180830381600087803b1580156100e257600080fd5b505af11580156100f6573d6000803e3d6000fd5b005b600080fd5b34801561010957600080fd5b50610112610257565b60405161011f91906104ef565b60405180910390f35b34801561013457600080fd5b5061013d61027d565b005b34801561014b57600080fd5b506101666004803603810190610161919061053b565b6101fd565b6040516101739190610568565b60405180910390f35b34801561018857600080fd5b50610191610342565b60405161019e9190610568565b60405180910390f35b3480156101b357600080fd5b506101bc610348565b6040516101c99190610583565b60405180910390f35b3480156101de57600080fd5b506101e761036e565b6040516101f491906105b7565b60405180910390f35b60008061020861036e565b90506000670de0b6b3a764000082856102219190610601565b61022b9190610672565b90506000612710600254836102409190610672565b61024a9190610672565b9050809350505050919050565b600160009054906101000a900473ffffffffffffffffffffffffffffffffffffffff1681565b600360009054906101000a900473ffffffffffffffffffffffffffffffffffffffff1673ffffffffffffffffffffffffffffffffffffffff163373ffffffffffffffffffffffffffffffffffffffff16146102d757600080fd5b600360009054906101000a900473ffffffffffffffffffffffffffffffffffffffff1673ffffffffffffffffffffffffffffffffffffffff166108fc479081150290604051600060405180830381858888f1935050505015801561033f573d6000803e3d6000fd5b50565b60025481565b600360009054906101000a900473ffffffffffffffffffffffffffffffffffffffff1681565b60008060008054906101000a900473ffffffffffffffffffffffffffffffffffffffff1673ffffffffffffffffffffffffffffffffffffffff1663feaf968c6040518163ffffffff1660e01b815260040160a060405180830381865afa1580156103dc573d6000803e3d6000fd5b505050506040513d601f19601f820116820180604052508101906104009190610726565b5050509150508091505090565b600073ffffffffffffffffffffffffffffffffffffffff82169050919050565b60006104388261040d565b9050919050565b6104488161042d565b82525050565b6000819050919050565b6104618161044e565b82525050565b600060408201905061047c600083018561043f565b6104896020830184610458565b9392505050565b6000819050919050565b60006104b56104b06104ab8461040d565b610490565b61040d565b9050919050565b60006104c78261049a565b9050919050565b60006104d9826104bc565b9050919050565b6104e9816104ce565b82525050565b600060208201905061050460008301846104e0565b92915050565b600080fd5b6105188161044e565b811461052357600080fd5b50565b6000813590506105358161050f565b92915050565b6000602082840312156105515761055061050a565b5b600061055f84828501610526565b91505092915050565b600060208201905061057d6000830184610458565b92915050565b6000602082019050610598600083018461043f565b92915050565b6000819050919050565b6105b18161059e565b82525050565b60006020820190506105cc60008301846105a8565b92915050565b7f4e487b7100000000000000000000000000000000000000000000000000000000600052601160045260246000fd5b600061060c8261044e565b91506106178361044e565b92508282026106258161044e565b9150828204841483151761063c5761063b6105d2565b5b5092915050565b7f4e487b7100000000000000000000000000000000000000000000000000000000600052601260045260246000fd5b600061067d8261044e565b91506106888361044e565b92508261069857610697610643565b5b828204905092915050565b600069ffffffffffffffffffff82169050919050565b6106c2816106a3565b81146106cd57600080fd5b50565b6000815190506106df816106b9565b92915050565b6106ee8161059e565b81146106f957600080fd5b50565b60008151905061070b816106e5565b92915050565b6000815190506107208161050f565b92915050565b600080600080600060a086880312156107425761074161050a565b5b6000610750888289016106d0565b9550506020610761888289016106fc565b945050604061077288828901610711565b935050606061078388828901610711565b9250506080610794888289016106d0565b915050929550929590935056fea26469706673582212206744ab1ae3c70cc1cdf988a60a692d661f3ace5517518737d7f0760485d80bdf64736f6c63430008130033",
  "linkReferences": {},
  "deployedLinkReferences": {}
}